:1000000010C02AC029C0F5C327C026C006C11FC121
:1000100023C022C021C020C01FC01EC01DC01CC0E4
:100020006AC311241FBECFE5D1E0DEBFCDBF10E013
:10003000A0E6B0E0ECEEFCE002C005900D92AA371D
:10004000B107D9F720E0AAE7B0E001C01D92AC3EAD
:10005000B207E1F737D548C6D3CF0F931F93CF939D
:10006000962F8832C8F5803208F09DC0863009F49A
:1000700062C0A8F4833009F45AC048F4813009F40E
:1000800050C0823009F0C4C0862F90E0A6C08430F2
:1000900009F44FC0853009F0BBC08AB3BAC08E30B6
:1000A00009F44DC040F4873009F447C0883009F0A6
:1000B000AFC087B3AEC0803109F466C0813109F0AA
:1000C000A7C0A62FA695B0E0AA0FBB1FAC57BF4F85
:1000D0006C9111968C917BC0803488F4A82FA77006
:1000E000883308F07EC0803308F074C0B0E0AA0FF7
:1000F000BB1FAC57BF4F8C9111966C9168C0873C69
:1001000001F148F4803409F471C0803C09F080C0EA
:1001100080917F007EC0883CD9F0813F09F470C097
:1001200077C0E62FF0E0E559FF4F808172C089B3B8
:1001300070C08BB36EC086B36CC088B36AC084B71E
:1001400068C080917E0091E0980F90937E0061C01E
:100150006230A1F040F4662371F0613009F058C0BC
:1001600085E090E03AC0633061F0643009F050C03F
:1001700081EF90E032C084E090E02FC086E090E014
:100180002CC080EF90E029C007E610E0C0E0F80145
:1001900082918F0178D4CC0FC82BF0E000361F0776
:1001A000B1F78C2F36C08770E82FF0E0EE0FFF1FFD
:1001B000EC57FF4F80819181209168003091690058
:1001C000821B930B6091670070E064D517C090FFAD
:1001D00020C014C08A2F90E04096CF911F910F91BC
:1001E0006DC5B0E0AC56BF4F8C9113C066B770E0E0
:1001F0006F5F7F4F90FF02C0872F0BC0862F09C013
:1002000060FD03C080917B0004C080917A0001C032
:10021000892FCF911F910F9108951F920F920FB6C2
:100220000F9211248F939F93DF9A80918400909175
:10023000850099BD88BD8091A2008F5F8093A20048
:100240009F918F910F900FBE0F901F9018951F9246
:100250000F920FB60F9211242F933F934F935F93FA
:100260006F937F938F939F93AF93BF93EF93FF937E
:10027000E091A30081E08E0F8093A300F0E0E05AAC
:10028000FF4F808199D3E091A300E73019F41092D9
:10029000A30014C0F0E0E05AFF4F8081A3D328B53B
:1002A00039B5E091A300F0E0EE0FFF1FEC57FF4FD0
:1002B00080819181820F931F99BD88BDFF91EF913D
:1002C000BF91AF919F918F917F916F915F914F916E
:1002D0003F912F910F900FBE0F901F9018951F9375
:1002E000CF93DF93162FC82FD0E0CE01E7D481172C
:1002F00031F0612FCE01DF91CF911F91E7C4DF91E3
:10030000CF911F910895962F917060FD38C0409352
:100310007D00803509F454C070F4883340F4803394
:10032000B8F590EE980F983008F0E4C019C080340A
:1003300008F0E0C031C0803C09F483C038F4813556
:1003400009F45EC0893509F479C00895813F09F444
:1003500094C0823F09F499C0803F09F0CBC07EC0B1
:100360008770282F30E0F901E556FF4FD901AC56D0
:10037000BF4F8C918083220F331FF90130C080342E
:1003800009F4A9C080F4803308F489C0883320F4CC
:100390008770642F805FA3CF8770E82FF0E0EC5662
:1003A000FF4F40830895893509F448C008F054C0D0
:1003B000813531F1883509F493C0803509F09AC050
:1003C000683008F097C070E0FB01E556FF4FDB0195
:1003D000AC56BF4F8C918083660F771FFB01EC57A3
:1003E000FF4F80916700642F70E090E042D420912D
:1003F000680030916900820F931F91838083089574
:100400006F3008F077C0992309F474C0669570E0E6
:10041000FB01E556FF4FDB01AC56BF4F8C9180834B
:10042000660F771FFB01EC57FF4F50E0542F442716
:1004300080917D00482B518340830895409367004D
:10044000089580919300823019F4417040937F00A9
:100450001092930014D2EDC1803F59F48091930023
:10046000823021F4842F8E7F09F0E3D11092930023
:100470000895813F48F1813F59F5809193008111A2
:10048000F5CF453599F781E007C080919300813021
:1004900069F74A3A59F782E08093930008958832C9
:1004A00078F08770282F30E0F901E556FF4FD90129
:1004B000AC56BF4F8C918083220F331FF901B3CF0D
:1004C000803208F04DCF0895803C09F4BACF0895EA
:1004D000823FD9F2089580917D00815086BF0895B2
:1004E00050E0542F442780917D00482B50936900A1
:1004F000409368000895EF92FF920F931F93CF935C
:10050000DF9350E6E52E50E0F52E04E810E0C0E160
:10051000D0E0F70181917F018BD2CE01CFD34FEF95
:10052000480F9091670020916800309169004E3F1C
:1005300040F0892F90E09695982F8827979587957A
:1005400005C0682F70E0892F90E093D3820F931F2E
:10055000F8019183808321960E5F1F4FC731D1052B
:10056000C1F61FBC8AE08EBD12BC8FE19EE49BBD2C
:100570008ABD86E08CB9DF91CF911F910F91FF90DA
:10058000EF9008957F928F929F92AF92BF92CF92F9
:10059000DF92EF92FF920F931F93CF93DF937090B0
:1005A000A2000091670010E0E0906800F090690000
:1005B00080919200871509F44FC08F5F809392005D
:1005C0008091A400813361F41092A40080917A009C
:1005D00090917B00019690937B0080937A0003C0FA
:1005E0008F5F8093A40080917C00843089F5109205
:1005F0007C0084E9882E80E0982E9BE9C92E90E04B
:10060000D92E24E8A22E20E0B22EC0E1D0E0F401E1
:1006100081914F01882389F0F6018081882319F0A8
:10062000815080830AC0CE0149D390E0B80121D324
:100630008E0D9F1DF50191838083FFEFCF1ADF0A96
:10064000219682E0A80EB11CC731D10501F7B0CFC9
:100650008F5F80937C00ACCFDF91CF911F910F9182
:10066000FF90EF90DF90CF90BF90AF909F908F90D2
:100670007F900895009741F0E7EAF7E03197F1F7AE
:1006800000C000000197F6CF0895CF93DF939C013F
:100690006115710501F1FB0114161506D4F4919151
:1006A0004150510968E070E0E901CC0FDD1F37FFD0
:1006B00005C09E0185E02827305801C09E01A92F62
:1006C000A170B0E02A273B2796956150710961F728
:1006D000E3CFC90102C080E090E0DF91CF9108959F
:1006E000D59888E58DB908958FB980E48EB9769B49
:1006F000FECF8FB108951F920F920FB60F92112463
:100700002F933F934F935F936F937F938F939F9319
:10071000AF93BF93EF93FF9380E48EB94FB1809175
:10072000830081111CC09091CA00842F8E7F891391
:1007300006C0B19904C081E08093820002C010928B
:100740008200842F81708093810090918200992390
:1007500031F0882321F0D59A809180008FB9809163
:100760007F0060918300882379F08091810081115E
:1007700005C0E62FF0E0E453FF4F4083E62FF0E0A2
:10078000E655FF4F808112C0662301F180918200FF
:100790008823A1F0613011F44093800080918100A2
:1007A000882331F061508091800057DC8FB906C0FA
:1007B000623020F0625080918000A5DD809183003E
:1007C0008F3130F48F5F8093830002C080E0FACFD6
:1007D000FF91EF91BF91AF919F918F917F916F9119
:1007E0005F914F913F912F910F900FBE0F901F90EF
:1007F00018951F920F920FB60F9211248F9380E4D9
:100800008EB9B19B0EC0D59880918200882359F093
:1008100080918100811107C0809183008093A7009F
:1008200002C0109283008F910F900FBE0F901F9007
:10083000189590917F00682F90FB60F96093CA0033
:1008400084E090E043D26091CA00609585E090E03A
:100850003DD26091CA0086E090E038D26091CA0033
:10086000609580EF90E032D26091CA0081EF90E015
:100870002DD28091CA008E7F8093CA000895809106
:10088000CA000895EF92FF920F931F93CF93DF93C7
:1008900000D000D01F92CDB7DEB784E090E00ED23A
:1008A000182F898385E090E009D2E82EE094EA824F
:1008B00086E090E003D2F82E8B8380EF90E0FED1AB
:1008C000082F00950C8381EF90E0F8D18D83E11023
:1008D0000FC09FEFF9120CC001110AC08F3F41F405
:1008E0001F3F11F410916A00812FA3DF812F17C0E1
:1008F0009E012A5F3F4FDE0111968D91FE013196D8
:1009000090E04191841301C09F5FE217F307C9F79C
:10091000933028F4AE17BF0781F780916A000F90DB
:100920000F900F900F900F90DF91CF911F910F912B
:10093000FF90EF900895CF92DF92EF92FF920F9386
:100940001F93CF93DF9300D01F92CDB7DEB7082F50
:10095000162FC090CA00C9828A83D090A900DB827A
:1009600043E050E0BE016F5F7F4F80E090E08DDE9E
:10097000E12EF12CA7016DEA70E087DEAAEAB0E073
:10098000F701E655FF4F83831F5FE12FF0E0E65547
:10099000FF4F9383CC921296DC92129711960C9390
:1009A0000F900F900F90DF91CF911F910F91FF90BB
:1009B000EF90DF90CF900895982F977021E030E06E
:1009C00001C0220F9A95EAF72095887F19F08830A8
:1009D00029F008958BB328232BBB089588B32823CF
:1009E00028BB0895982F977021E030E001C0220FB6
:1009F0009A95EAF7887F19F0883029F008958BB32B
:100A0000282B2BBB089588B3282B28BB0895982F3B
:100A1000977021E030E001C0220F9A95EAF7887FB5
:100A200019F0883019F0089529BB089526BB089560
:100A3000982F977021E030E001C0220F9A95EAF7D5
:100A4000887F19F0883029F008958AB3282B2ABBB3
:100A5000089587B3282B27BB0895982F977021E01E
:100A600030E001C0220F9A95EAF72095887F19F0AF
:100A7000883029F008958AB328232ABB089587B3C4
:100A8000282327BB0895282F30E0287F2115310522
:100A900029F02830310521F426B303C029B301C061
:100AA00020E030E08770A90102C0559547958A95EE
:100AB000E2F7CA01817008956111BACFCECF6111FA
:100AC00091CF7ACFDFDE982F9E7F9093CA008170FE
:100AD00080937F0005DE80B5826080BD8BB7806229
:100AE0008BBF09DD7894EAEAF0E080E081938F5FC4
:100AF0008431E1F7DBEB8091A700882309F4B7C0CC
:100B00009091CC008091CA009813AFC0D093AB00F5
:100B10008091CE008093A9004091A70050E0425000
:100B200051096CEC70E080E090E0AFDDE091A7004F
:100B3000AC015527F0E0E653FF4F208130E042172B
:100B4000530709F087C0E091A700492F5527F0E02F
:100B5000E553FF4F208130E04217530709F07AC078
:100B60008091CD00813C81F513E003E0202F30E03F
:100B70008091A70090E00297281739070CF5C12F44
:100B8000B90164537F4F6B017B017FEFE71AF70ACE
:100B90006C2F611BF6018081681710F4CE3119F4B7
:100BA0000E5F1C2FE3CFBB24B394BC0EF7018081F2
:100BB00054DAEC2FF0E0E655FF4F8083CB2DE8CFE1
:100BC0006DEF610F8AEA50C0823CD9F583E0F82EC0
:100BD0000F2D10E08091A70090E0029708171907E9
:100BE0005CF58091A70098012E5F3F4F90E0019740
:100BF00004531F4FF8014081B901640F711D68173C
:100C00007907E4F4C0E0C90184539F4F6C01580197
:100C10009FEFA91AB90AF8018081C81750F4F601AC
:100C2000EC0FF11D40816C2FF50180816CDBCF5FF3
:100C3000F2CFCE5FFC0ECCCF8CEC01C08FEE60E02B
:100C400013C09091A7009093AD008093AE0062E036
:100C50008EEB0AC02091A7002093AD008093AE00D8
:100C60009093AF0063E08EEE66DE1092A7008ADC00
:100C700042CF0024552704C0080E591F880F991F22
:100C8000009729F076956795B8F37105B9F7802D2F
:100C9000952F0895AA1BBB1B51E107C0AA1FBB1FBC
:100CA000A617B70710F0A61BB70B881F991F5A95F8
:100CB000A9F780959095BC01CD010895E199FECFEB
:100CC0001FBA8EBBE09A99278DB30895262FE1991C
:100CD000FECF1CBA1FBA8EBB2DBB0FB6F894E29A9A
:0C0CE000E19A0FBE01960895F894FFCF32
:100CEC000703020A01080004DC03867370695F7352
:0A0CFC006572766F20322E31000081
:00000001FF
